:02000000A62830
:0E0006008312031323088A00220882000800D8
:0C001400831203139501171297120800C5
:1000200083120313FB01FA01F9018030F800F10C8F
:10003000F00C031C24287408F90775080318750FC1
:10004000FA070318FB0A0310F01F2C287408FA079C
:1000500075080318750FFB07FB0CFA0CF90CF80C6C
:10006000031C17287B08F3007A08F2007908F100D6
:060070007808F000080012
:100076008316031788018901831287138813FF30BB
:1000860003138500FF3083168500831286018316CD
:100096008601831287018316870183121214921038
:0A00A6006330831692000A20080060
:1000B000831603131208013EF000F1010318F10A40
:1000C00083122408F400F50110200630F2007008B5
:1000D000F4007108F500720803197328F50CF40C8C
:1000E000F513FF3E6C280430F1007408F00071082D
:1000F00003197E28F00D7010FF3E7828303070050F
:10010000F3007408F0007508F100F10CF00CF11325
:10011000F10CF00CF113700895000F30970573087F
:040120009704080038
:1001240003208A110A128000840AA20A0319A30A6E
:08013400F003031D92280800EE
:10013C00831603130711831212150C309704080051
:10014C003B201030A0001030A1009E202008A400FD
:10015C0058200518BE286830FC00E430FD00FD0B6B
:10016C00B528FC0BB5280000A00A2008A4005820D4
:10017C008518CD286830FC00E430FD00FD0BC42848
:10018C00FC0BC4280000A0032008A40058200D304C
:10019C00FC00FB30FD00FD0BD128FC0BD12800002E
:0601AC000000AF28D82876
:04400E00F22F000786
:00000001FF
